:100000001c9c05a504841dbda0a460a50000000dd6
:1000100018192e2fcdedcdbda1a2a3a4a5a6a7a8ea
:10002000a9aaabacadaeafb8b9bf1a5aba00bb0003
:10003000bbb0b1b2b3b4b5b6b706c4c686a500edc1
:10004000cd5da1a2a3a4a5a6a7a8a9aaabacadae5d
:10005000afb8b9bfbabb60bb60b0b1b2b3b4b5b6ec
:10006000b7bd1b9b40ed02e08405a5a606a606a62b
:1000700006a6e0061a5a400090919293949596979e
:100080009e9c9d9fe00290919293949596979e9c42
:100090009d9fe0a2850000e0c400e0000242400510
:1000a00040836240a7006262c2a5a10402e042024e
:1000b000424080054007e7c7a8a50009034302c2e4
:1000c0004282a16002e0428080058807e7c7a8a5b8
:1000d0000009034302c24282a16082e000bdbfb1b9
:1000e000b000800040040084024251400363114389
:1000f00003630005104344000004008410500250c4
:100100000250025002620370032302425140024235
:1001100022036300051043440000040084105002d1
:10012000500250025002500222024251400204008a
:10013000840242514002422203630005020243440a
:1001400000000004107003430250024302220242e6
:1001500051400204008402425140024222036300e3
:100160000510434400000400841070034302500251
:1001700022024251400363114303630005104344cc
:100180000000040084105002430250025002222258
:10019000402204008422402202422203630005021e
:1001a0000243440000000410500250025002222278
:1001b0004002040084224022024222036300051010
:1001c00043440000040084105002500222224022c6
:1001d000024222036300051043440000040084101f
:1001e0005002500222224003024222630005020212
:1001f00043440000000410500222036311434400f2
:100200000000040004bfb1b0e0bd0242404040e045
:10021000400245a2a30043424084a3006544a26378
:10022000a342a202620200a002a2a000e0000244d7
:10023000828500a24000830064466383a28202623a
:10024000c000808080e000036362630043e04203fb
:10025000636263004342e04282bdbfb0428282409b
:10026000a0000405a5a20343a2a2004200a20040f0
:10027000824000000404848203438282004282bfe1
:1002800000b0e0bdbdbfb1b080000410000000119f
:1002900031220042500040000000040000bdbfb306
:1002a000b2b1b08000041000001360311260100081
:1002b0000040006232420200040000bdbfb0800076
:1002c0000410000000040004000400040000bdbf8e
:1002d000b08000041000000242424042000402428a
:1002e00042404200040002bdbfb00242400242420e
:1002f000048400060007048405060007048405063c
:100300000007048405a00007000202024003020265
:1003100002020200000003000303024243040084bf
:1003200000040004040084000400040004036302c9
:100330006200000000024242004240020363620089
:1003400042400244e000bdb080bfb1020040110055
:100350005100000404001002004000bfb1b000e0f2
:10036000bdbdbfb1b0801011448240000084840044
:10037000100111bfb1b0e0bdbdbf0000bf00e0bdc6
:10038000024242e042bdbf0000400242bf00e0bd69
:100390000363028262e00002821a036362e00002e9
:1003a00042420082e0420242420082e04203630293
:1003b00082628464e0008005026248048402424351
:1003c0006467c6a1a0a20202a202460343a24003a0
:1003d0000063a24063a240030063a240636704e29b
:1003e000e667036305434804848302a200e3e087d1
:1003f00080a00902624a04840242436468c6212044
:100400002202022202460343224003006322406389
:100410002240030063224063680402066803630904
:10042000434a022205a502420962a2048402a8c727
:1004300083c7e000bdbfbeb7b6b5b4b3b2b1b0803c
:100440008004008400040004024255000242464534
:1004500040036383a0c2c6a58431622240630017b3
:10046000025602425453401e37a240236240774056
:10047000a2400000836362407700c03000000700a4
:10048000e444000000400004000400c00000070035
:10049000e464000000400004000400c0000000c448
:1004a00084008400040004947331224052bfbeb71c
:1004b000b6b5b4b3b2b1b0e0bdbdbfbeb7b6b5b4aa
:1004c000b3b2b1b080800400840004000402425240
:1004d000000242464540036383a0c2c6a584106261
:1004e0000240631016025502425154531e17164221
:1004f00040037642400000632300a0000000400754
:1005000000e464000000400004000400a0000000bb
:100510004000c484000000400004000400a000006b
:10052000004000e424000000400004000431941066
:100530000073100304034240009000840000004058
:10054000000400040000100003bfbeb7b6b5b4b38a
:10055000b2b1b0e0bd8285036602466200a240a24d
:100560008262648402666382836000c08200024506
:10057000430003454283824000830242036262e0fb
:1005800060820366830246a2006240628282a48483
:1005900002666382836000c0820002454300034517
:1005a0004283824000830242036262e060858307e7
:1005b000e7e6024205a26463c6c0a3e20343e2e2a7
:1005c0000042e200424000e20343e2e20042e2e095
:1005d00000000000000000697969796574690069ac
:1005e000006f006879777969650069650065740056
:1005f000696569656f650068650077656c6e65693a
:1006000000690065006969006f006800776e00206e
:10061000626900687200696f006d6900686100744a
:100620007320486c61202031005377686c69006149
:10063000615b20005b20005b582077686c695f007d
:100640006c6172200000000000000000000000004b
:10065000000000000000000000000000000000009a
:10066000000000000000000000000000000000008a
:00000001ff
